:020000040800F2
:10000000A8590020C1010008D5100008C702000847
:10001000D110000897040008A31700080000000092
:1000200000000000000000000000000011110008A6
:100030009B040008000000001302000813110008D0
:10004000DB010008DB010008DB010008DB01000820
:10005000DB010008DB010008DB010008DB01000810
:10006000DB010008DB010008DB010008DB01000800
:10007000DB010008DB010008DB010008DB010008F0
:10008000DB010008DB010008DB010008DB010008E0
:10009000DB010008DB010008DB010008DB010008D0
:1000A000DB010008DB010008DB010008DB010008C0
:1000B000DB010008DB010008DB010008DB010008B0
:1000C000DB010008DB010008DB010008DB010008A0
:1000D000DB0100088D1600089D160008DB010008F2
:1000E000DB010008DB010008DB010008DB01000880
:1000F000DB010008DB010008DB010008DB01000870
:10010000DB010008DB010008DB010008DB0100085F
:10011000DB010008DB010008FD120008DB0100081C
:10012000DB010008DB010008DB010008DB0100083F
:10013000DB010008DB010008DB010008DB0100082F
:10014000DB010008DB010008DB010008DB0100081F
:10015000DB010008DB010008DB010008DB0100080F
:10016000DB010008DB010008DB010008DB010008FF
:10017000DB010008DB010008DB01000800000000D3
:10018000DB010008DB010008DB010008DB010008DF
:10019000DB010008DB010008DB010008DB010008CF
:1001A000DB010008DB010008DB010008DFF80CD0F0
:1001B00000F058F90048004789040008A8590020B9
:1001C0000648804706480047FEE7FEE7FEE7FEE7F1
:1001D000FEE7FEE7FEE7FEE7FEE7FEE7991200080E
:1001E000AD010008EFF3108072B6704780F31088FD
:1001F00070473A4A1368012B04D04FF00103136093
:10020000374A1060374A116037484FF0805101601B
:100210007047EFF3108272B63048016851B34FF067
:10022000000101602E48016891B1EFF309811EF0D1
:10023000100F08BF21ED108B21E9F00F4FF00004E3
:100240001EF0100F08BF012441F8044D0068016042
:1002500024490968096808C9B1E8F00F002B18BFE4
:10026000B1EC108B81F309884EF0100E002B18BFF3
:100270002EF0100E82F310884EF0040E70471949CC
:100280000860EFF3148222F0040282F31488144908
:100290004FF00000086011494FF00100086013485A
:1002A0004FF47F01D0F8002041EA020101600E48BE
:1002B0004FF0805101600E480068006880F30888A4
:1002C00061B662B67047EFF3098000B503F08CFCAD
:1002D0005DF804EB4EF0040E7047000004010020AE
:1002E000FC0000200001002004ED00E020ED00E013
:1002F00008ED00E02DE9F05F0546002092469B46A0
:1003000088460646814640241BE02846414647462B
:10031000224600F097F853465A46C01A914110D32E
:1003200011461846224600F07EF82D1A67EB0108A8
:100330004F4622460120002100F075F817EB000916
:100340004E41201EA4F10104DFDC484631462A4616
:100350004346BDE8F09F40EA01039B0703D009E054
:1003600008C9121F08C0042AFAD203E011F8013BA1
:1003700000F8013B521EF9D27047D2B201E000F8FA
:10038000012B491EFBD270470022F6E710B5134639
:100390000A4604461946FFF7F0FF204610BD421EEC
:1003A00012F8013F002BFBD111F8013B02F8013B91
:1003B000002BF9D1704710B5044604E00B7800F823
:1003C000013B03B1491C521EF8D2204610BD421C0D
:1003D00010F8011B0029FBD1801A704730B5044684
:1003E0000020034600E05B1C934203D2E05CCD5C3E
:1003F000401BF8D030BD034611F8012B00F8012B4B
:10040000002AF9D11846704730B50546002003464A
:1004100000E05B1C934205D2EC5CC85C201A01D161
:10042000002CF6D130BD202A04DB203A00FA02F17C
:10043000002070479140C2F1200320FA03F31943D2
:1004400090407047202A04DB203A21FA02F0002174
:10045000704721FA02F3D040C2F1200291400843D4
:1004600019467047064C074D06E0E06840F001036E
:1004700094E8070098471034AC42F6D3FFF79AFE91
:1004800084650008A465000810B5FFF7ABFE05F011
:100490003FF9002010BD00BFFEE77047F8B50246E7
:1004A0000B460025002400200021E6E0012606FA84
:1004B00001F51E6806EA0504AC4273D15E68022E9F
:1004C00002D05E68122E13D1CF0802F1200656F832
:1004D00027004E07F70E0F26BE40B0434F07FF0E12
:1004E0001E69BE403043CF0802F1200646F82700BF
:1004F00010684F000326BE40B0431E7906F0030685
:100500004F00BE40304310605E68012E08D05E6828
:10051000022E05D05E68112E02D05E68122E13D115
:1005200090684F000326BE40B0434F00DE68BE40D7
:1005300030439060506801268E40B0431E79C6F368
:1005400000168E4030435060D0684F000326BE40F6
:10055000B0434F009E68BE403043D0605E6806F0F6
:100560008056B6F1805FA8D100BF00260096454EA8
:10057000366846F48046434F3E603E46366806F491
:100580008046009600BF00BF3F4E8F0856F82700F8
:100590008E07370F0F26BE40B0433C4EB24202D109
:1005A00000262EE068E03A4EB24201D1012628E052
:1005B000384EB24201D1022623E0374EB24201D179
:1005C00003261EE0354EB24201D1042619E0344E16
:1005D000B24201D1052614E0324EB24201D10626C4
:1005E0000FE0314EB24201D107260AE02F4EB2424F
:1005F00001D1082605E02E4EB24201D1092600E0C5
:100600000A268F073F0FBE4030431F4E8F0846F823
:100610002700284E3068A0435E6806F48036B6F5A1
:10062000803F00D12043234E3060361D3068A04308
:100630005E6806F40036B6F5003F00D120431D4E3B
:10064000361D3060361D3068A0435E6806F48016A3
:10065000B6F5801F00D12043164E08363060361D97
:100660003068A0435E6806F40016B6F5001F00D19E
:100670002043104E0C363060491C1029FFF416AF91
:10068000F8BD000044380240083801400000024034
:100690000004024000080240000C0240001002402A
:1006A0000014024000180240001C024000200240DA
:1006B00000240240003C014042694A4042617047C8
:1006C00001480068704700000400002010B50D4884
:1006D000006840F400700B4908600846006840F468
:1006E000806008600846006840F48070086003205D
:1006F00000F0CAF8002000F007F800F02BF8002006
:1007000010BD0000003C024070B504460E48007861
:100710004FF47A71B1FBF0F00C490968B1FBF0F5C8
:10072000284600F081FC08B1012070BD102C07D2D2
:1007300000222146501E00F068F80548046001E0E0
:100740000120F2E70020F0E70C000020100000205C
:100750000800002008B500BF002000902348006872
:1007600040F48040214908600846006800F4804059
:10077000009000BF00BF00BF00200090081F00686D
:1007800040F08050091F08600846006800F0805063
:10079000009000BF00BF032000F076F80022114651
:1007A0006FF00B0000F031F8002211466FF00A00E4
:1007B00000F02BF8002211466FF0090000F025F838
:1007C00000221146501F00F020F800221146101F91
:1007D00000F01BF800221146901E00F016F80022CF
:1007E0001146501E00F011F808BD000044380240C8
:1007F00000BF00F01F02012191404209920002F166
:10080000E022C2F8001100BF70472DE9F05F80467A
:100810000D461646002700F05FFC074639462A467B
:10082000334601F00700C0F1070ABAF1040F02D9FC
:100830004FF0040A01E0C0F1070AD14600F1040AB2
:10084000BAF1070F02D24FF0000A01E0A0F1030A4B
:10085000D4464FF0010A0AFA09FAAAF1010A0AEA93
:10086000020A0AFA0CFA4FF0010B0BFA0CFBABF17F
:10087000010B0BEA030B4AEA0B042146404600F049
:1008800033FCBDE8F09F000000BF00F00702064BFC
:1008900019684FF6FF031940044B0B4343EA02214A
:1008A000014B196000BF70470CED00E00000FA0535
:1008B00038B5002400BF002000901D48006840F0BB
:1008C00080501B4908600846006800F08050009086
:1008D00000BF00BF012017490864FFF7F1FE04467E
:1008E00007E0FFF7EDFE001BB0F57A7F01D903208A
:1008F00038BD1148406800F48030B0F5803FF0D139
:1009000001200C494864FFF7DBFE044607E0FFF7CF
:10091000D7FE001BB0F57A7F01D90320E8E706482F
:10092000406800F40030B0F5003FF0D10020DFE770
:100930004038024000000E420070004070B504468E
:100940000D460CB9012070BD5848006800F00F003A
:10095000A84209D255490D700846006800F00F0002
:10096000A84201D00120EEE7207800F00200022822
:100970001DD1207800F00400042805D14C480068FF
:1009800040F4E0504A490860207800F00800082848
:1009900005D14748006840F4604045490860444834
:1009A000006820F0F000A168084341490860207801
:1009B00000F00100A8B36068012807D13C4808385E
:1009C0000068C0F34040B8B90120BCE76068022865
:1009D00002D06068032807D1354808380068C0F3A2
:1009E000406048B90120AEE7314808380068C0F3DC
:1009F000400008B90120A6E72D48006820F0030058
:100A0000616808432A490860FFF75AFE064609E074
:100A1000FFF756FE801B41F28831884202D903203D
:100A200091E707E02248006800F00C006168B0EB35
:100A3000810FEDD11D48006800F00F00A84209D9D0
:100A40001A490D700846006800F00F00A84201D056
:100A5000012078E7207800F00400042807D114482A
:100A6000006820F4E050E1680843114908602078EC
:100A700000F00800082808D10D48006820F4604004
:100A8000216940EAC1000A49086000F03DF80849C0
:100A90000968C1F30311074A515CC8400649086060
:100AA0000020FFF731FE00204DE70000003C02402F
:100AB00008380240665A000810000020014800680B
:100AC000704700001000002000B5FFF7F7FF044951
:100AD0000968C1F38221034A515CC84000BD00008F
:100AE00008380240765A000800B5FFF7E7FF0449CE
:100AF0000968C1F34231034A515CC84000BD00009F
:100B000008380240765A00082DE9F04700240025F5
:100B10000026A1462548006800F00C0020B10428FA
:100B200005D008283AD105E0DFF8849039E0DFF8F5
:100B3000849036E01D48001F006800F03F041B4809
:100B4000001F006800F4800078B11A481749091F97
:100B50000968C1F38811A0FB0170014622460023F9
:100B60003846FFF7C7FB05460EE011480F49091F3D
:100B70000968C1F38811A0FB0170014622460023D9
:100B80003846FFF7B7FB05460848001F0068C0F36A
:100B90000140401C4600B5FBF6F902E0DFF810907A
:100BA00000BF00BF4846BDE8F0870000083802409B
:100BB0000024F40040787D01F8B504460CB901200A
:100BC000F8BD207800F00100002874D0F9480068D2
:100BD00000F00C0004280DD0F648006800F00C006E
:100BE000082813D1F348001F006800F48000B0F516
:100BF000800F0BD1EF4808380068C0F34040002850
:100C000059D06068002856D10120D9E700BF60683C
:100C1000B0F5803F08D1E7480838006840F48030DC
:100C2000E449083908601EE06068B0F5A02F0DD1D6
:100C3000E0480838006840F48020DE490839086040
:100C40000846006840F4803008600CE0D948083855
:100C5000006820F48030D7490839086008460068E9
:100C600020F48020086000BF606890B1FFF728FD85
:100C7000054606E0FFF724FD401B642801D9032048
:100C80009EE7CC4808380068C0F340400028F1D007
:100C900011E0FFF715FD054606E0FFF711FD401BCB
:100CA000642801D903208BE7C24808380068C0F3E4
:100CB00040400028F1D1207800F0020002285FD1E6
:100CC000BC48006800F00C0058B1BA48006800F059
:100CD0000C0008281CD1B748001F006800F48000F1
:100CE000B0B9B44808380068C0F3400020B1E068EB
:100CF000012801D0012063E7AE480838006820F0E1
:100D0000F800216940EAC100AA490839086037E0C3
:100D1000E06800B30120A8490860FFF7D1FC054650
:100D200006E0FFF7CDFC401B022801D9032047E76E
:100D3000A04808380068C0F340000028F1D09D4862
:100D40000838006820F0F800216940EAC10099499C
:100D50000839086014E0002097490860FFF7B0FCEC
:100D6000054606E0FFF7ACFC401B022801D9032032
:100D700026E7904808380068C0F340000028F1D109
:100D8000207800F0080008282CD16069A8B1012063
:100D90008A490860FFF794FC054606E0FFF790FCDF
:100DA000401B022801D903200AE782486C30006802
:100DB000C0F340000028F1D014E000207F49086013
:100DC000FFF77EFC054606E0FFF77AFC401B022891
:100DD00001D90320F4E677486C300068C0F3400086
:100DE0000028F1D1207800F00400042870D10026FA
:100DF00070483830006800F0805090B900BF002083
:100E000000906C483830006840F0805069493831B3
:100E100008600846006800F08050009000BF00BFE6
:100E200001266748006800F48070B0B96448006823
:100E300040F4807062490860FFF742FC054606E016
:100E4000FFF73EFC401B022801D90320B8E65C48AE
:100E5000006800F480700028F2D000BFA06801286C
:100E600008D154486830006840F0010051496831A9
:100E700008601DE0A06805280DD14E486830006864
:100E800040F004004B49683108600846006840F0B3
:100E9000010008600CE047486830006820F001005D
:100EA0004449683108600846006820F00400086082
:100EB00000BFA068A8B1FFF703FC054609E0FFF7F3
:100EC000FFFB401B41F28831884202D9032077E6BC
:100ED00026E0384868300068C0F340000028EED0B3
:100EE00013E0FFF7EDFB054608E0FFF7E9FB401BC9
:100EF00041F28831884201D9032061E62D486830EB
:100F00000068C0F340000028EFD1012E07D1294826
:100F10003830006820F0805026493831086000BF22
:100F2000A069B8B32348006800F00C0008285ED020
:100F3000A069022846D100201F490866FFF7C0FBC0
:100F4000054606E0FFF7BCFB401B022801D9032041
:100F500036E6184808380068C0F340600028F1D130
:100F6000D4E907010843616A40EA81110122A06ABD
:100F7000C2EB500041EA00412C20005D41EA0060D4
:100F80000C49091F086001200B490866FFF798FB10
:100F9000054607E02DE0FFF793FB401B022801D92F
:100FA00003200DE6034808380068C0F340600028BD
:100FB000F1D01EE00838024000004742800E474250
:100FC0000070004000200C490866FFF779FB0546D9
:100FD00006E0FFF775FB401B022801D90320EFE56F
:100FE00006480068C0F340600028F2D101E001200B
:100FF000E6E50020E4E5000000004742003802403A
:10100000042808D14FF0E021096941F004014FF0B4
:10101000E022116107E04FF0E021096921F00401AD
:101020004FF0E0221161704770B504462546681EF6
:10103000B0F1807F01D301200FE0681E4FF0E02166
:1010400048610F214FF0FF3000F04EF800204FF0C4
:10105000E021886107200861002070BD10B50446BA
:101060000CB9012010BDA06900B100E000BF94F8E8
:10107000390028B9002084F83800204600F027F80D
:10108000242084F839002068C06820F400502168CA
:10109000C860204600F046F92068006920F49040BE
:1010A000216808612068406920F02A0021684861B1
:1010B0002068C06840F400502168C8600020E063E8
:1010C000202084F8390084F83A000020CAE77047ED
:1010D00000BFFEE77047000002480068C0F302202E
:1010E000704700000CED00E010B5002807DA0A0791
:1010F000140E054A00F00F031B1FD45403E00A0727
:10110000130E024A135410BD18ED00E000E400E095
:10111000704710B502F018FE00F006F803F0AAFFC1
:1011200002F02AFE10BD000010B51B48006840B157
:1011300019480068401E1849086010B90120174975
:101140000870002408E004EB4401154A02EB81001A
:1011500001F0F6F9601CC4B2042CF4DB11480068FD
:10116000401C10490860084600686FF00041884242
:1011700002D100200B49086001F064F80A480078A9
:10118000401CC0B2084908700A2803DB0020087020
:1011900001F054F810BD00001C00002020000020C9
:1011A00064010020140000202100002010B592B03E
:1011B00000BF002000903248006840F08050304965
:1011C00008600846006800F08050009000BF00BF33
:1011D00000BF002000902B48006840F4404029499F
:1011E00008600846006800F44040009000BF00BF5F
:1011F000012006900004079002200C9041050D91FB
:1012000019210E914FF4B4710F9102211091042114
:10121000119106A8FFF7D0FC18B147211AA000F0E1
:10122000C2FAFFF745FB18B14E2117A000F0BBFA38
:101230000F20019002200290002003904FF4A05054
:1012400004904FF480500590052101A8FFF776FB2C
:1012500018B15C210CA000F0A6FAFFF72FFC4FF4A8
:101260007A71B0FBF1F42046FFF7DEFE0420FFF7B1
:10127000C7FE00221146501EFFF7C7FA12B010BD7C
:1012800040380240007000402E2E5C4253505C6299
:1012900073702E63000000001448006840F4700072
:1012A000124908601248006840F0010010490860C7
:1012B00000200F49083108600D4800680D490840BA
:1012C0000B4908600C48091D0860081F006820F4DD
:1012D0008020091F0860002005490C3108604FF08C
:1012E00000600249803908607047000088ED00E026
:1012F00000380240FFFFF6FE1030002410B507480A
:10130000006900F0010038B16FF001000349086185
:101310000915034804F0EBFA10BD0000001000406E
:10132000001C02402DE9F0410446002520680569B3
:1013300025F44055E0680543206805612068C568CC
:1013400049F20C6085432169A0680843616908433C
:10135000E169084305432068C5602068456925F4B4
:101360004075A069054320684561E069B0F5004F0C
:101370007ED1C4492068884203D0C349206888428E
:101380005DD1FFF7B1FB00EBC00101EB001061681C
:101390004900B0FBF1F06421B0FBF1F00601FFF76A
:1013A000A3FB00EBC00101EB001061684900B0FB3A
:1013B000F1F7FFF799FB00EBC00101EB001061684A
:1013C0004900B0FBF1F06421B0FBF1F000EBC0018B
:1013D00001EB0010A7EB8000322101EBC00064217B
:1013E000B0FBF1F000F0F80006EB4006FFF77CFBE5
:1013F00000EBC00101EB001061684900B0FBF1F7A0
:10140000FFF772FB00EBC00101EB001061684900BF
:10141000B0FBF1F06421B0FBF1F000EBC00101EB97
:101420000010A7EB8000322101EBC0006421B0FB6B
:10143000F1F000F0070030442168886020E1FFF7F8
:1014400043FB00EBC00101EB001061684900B0FBF9
:10145000F1F06421B0FBF1F00601FFF735FB00EB82
:10146000C00101EB001061684900B0FBF1F700E03A
:1014700045E0FFF729FB00EBC00101EB00106168BC
:101480004900B0FBF1F06421B0FBF1F000EBC001CA
:1014900001EB0010A7EB8000322101EBC0006421BA
:1014A000B0FBF1F000F0F80006EB4006FFF70CFB94
:1014B00000EBC00101EB001061684900B0FBF1F7DF
:1014C000FFF702FB00EBC00101EB0010616849006F
:1014D000B0FBF1F06421B0FBF1F000EBC00101EBD7
:1014E0000010A7EB8000322101EBC0006421B0FBAB
:1014F000F1F000F00700304421688860C0E06149E5
:101500002068884203D06049206888425CD1FFF798
:10151000EBFA00EBC00101EB001061688900B0FB41
:10152000F1F6FFF7E1FA00EBC00101EB0010616892
:101530008900B0FBF1F06421B0FBF1F000EBC001D9
:1015400001EB0010A6EB8000322101EB00106421BA
:10155000B0FBF1F000F0F006FFF7C6FA00EBC001B7
:1015600001EB001061688900B0FBF1F06421B0FB71
:10157000F1F006EB0016FFF7B7FA00EBC00101EB44
:10158000001061688900B0FBF1F7FFF7ADFA00EBDE
:10159000C00101EB001061688900B0FBF1F064212B
:1015A000B0FBF1F000EBC00101EB0010A7EB8000F5
:1015B000322101EB00106421B0FBF1F000F00F00CC
:1015C0003044216888605BE0FFF77EFA00EBC001E1
:1015D00001EB001061688900B0FBF1F6FFF774FAC7
:1015E00000EBC00101EB001061688900B0FBF1F075
:1015F0006421B0FBF1F000EBC00101EB0010A6EBA1
:101600008000322101EB00106421B0FBF1F000F00A
:10161000F006FFF759FA00EBC00101EB001061681A
:101620008900B0FBF1F06421B0FBF1F006EB00168D
:10163000FFF74AFA00EBC00101EB00106168890076
:10164000B0FBF1F7FFF740FA00EBC00101EB00102F
:1016500061688900B0FBF1F06421B0FBF1F000EBB0
:10166000C00101EB0010A7EB8000322101EB00105C
:101670006421B0FBF1F000F00F0030442168886075
:10168000BDE8F081001001400014014010B502488F
:1016900000F00CF810BD00009401002010B50248C5
:1016A00000F004F810BD0000C40900202DE9F0414D
:1016B0000446206805682068C6682068D0F8148051
:1016C00005F02000D8B120684068C7B2E18AA06860
:1016D0004754E08A401C80B2E082E189884201DB05
:1016E0000020E082608BE189884202DA608B401C36
:1016F0006083A06A10B13846A16A884700BF05F030
:10170000800028B306F0800010B3A08A60B920687A
:10171000C06820F080002168C8602068C06840F080
:1017200040002168C86013E0012084F82C00618A21
:101730006068405C21684860608A401C80B26082BA
:10174000A189884201DB00206082A08A401EA0821D
:1017500005F0400018B306F0400000B3A08A68B955
:101760002068C06820F040002168C860606A08B145
:10177000606A8047002084F82C0010E0618A60686D
:10178000405C21684860608A401C80B26082A18908
:10179000884201DB00206082A08A401EA082BDE852
:1017A000F08100BFFEE700BFFEE700000FB4054B6D
:1017B00010B503A9044A029800F03EFC10BC5DF885
:1017C00014FB00006D2C000810010020014609B92F
:1017D00000207047C8B220B1C8B20E4A105C401C4D
:1017E000F7E701F47F4028B10A48C1F30722805C83
:1017F0000930EEE701F47F0028B10648C1F3074243
:10180000805C1130E5E7034800EB11600078193087
:10181000DFE70000435D000802E008C8121F08C1AE
:10182000002AFAD170477047002001E001C1121F61
:10183000002AFBD1704780F310887047034908687D
:10184000884201D0012070470020FCE7E80000201A
:101850002DE9FC410546284601F0A0FD80461CA26A
:1018600041461DA002F0E4FA404601F0B7FD23A076
:1018700002F0DEFA2E6825E0A6F1100404F118004B
:1018800002F013FBA8B904F1180002F026FB07468A
:10189000206A23460C224146CDE900071FA002F032
:1018A000C7FA04F1180003F0E7FF13A002F0C0FA32
:1018B00007E0206A23460C22414600901DA002F05A
:1018C000B7FA3668AE42D7D10020BDE8FC810000EF
:1018D0006576656E74000000252D2A2E7320202069
:1018E0002020207365742020202073757370656E2E
:1018F00064207468726561640A00000020202D2D48
:101900002D2D2D2D2D2D2D2D202D2D2D2D2D2D2D14
:101910002D2D2D2D2D2D2D0A00000000252D2A2ED8
:101920002A73202030782530387820253033643AE7
:1019300000000000252D2A2E2A7320203078253023
:10194000387820300A0000002DE9FE4F06460FF2DD
:101950009C09484602F0BAFF8046304601F01EFD61
:101960000746474500DA47464A46394621A002F075
:101970005FFA384601F032FD27A002F059FA3568C7
:101980002FE0A5F1100404F1180002F08EFAB8B9A6
:1019900004F1180002F0A1FA8246A08CE18C2346E3
:1019A0000C22CDE9010A0091394622A002F040FA4A
:1019B00004F1180003F060FF24A002F039FA0FE0F0
:1019C00004F1180002F089FA8246A08CE18C2346CB
:1019D0000C22CDE9010A009139461DA002F028FA37
:1019E0002D68B542CDD10020BDE8FE8F6D61696CD8
:1019F000626F7800252D2A2E7320656E747279200F
:101A000073697A652073757370656E64207468728B
:101A10006561640A00000000202D2D2D2D20202D51
:101A20002D2D2D202D2D2D2D2D2D2D2D2D2D2D2DF3
:101A30002D2D0A00252D2A2E2A73202530346420CE
:101A400020253034642025643A0000000A0000009C
:101A5000252D2A2E2A732025303464202025303469
:101A6000642025640A0000002DE9FC4706460FF2B9
:101A70009409484602F02AFF8046304601F08EFC69
:101A80000746474500DA47464A46394620A002F055
:101A9000CFF9384601F0A2FC24A002F0C9F935685C
:101AA0002BE0A5F1100404F1180002F0FEF9A8B92A
:101AB00004F1180002F011FA8246208D23460C2210
:101AC0003946CDE9000A1FA002F0B2F904F118006E
:101AD00003F0D2FE20A002F0ABF90DE004F11800F3
:101AE00002F0FBF98246208D23460C223946CDE9CF
:101AF000000A1AA002F09CF92D68B542D1D100204D
:101B0000BDE8FC876D736771756575650000000041
:101B1000252D2A2E7320656E74727920737573706B
:101B2000656E64207468726561640A00202D2D2D35
:101B30002D20202D2D2D2D2D2D2D2D2D2D2D2D2DEF
:101B40002D0A0000252D2A2E2A73202530346420EA
:101B50002025643A000000000A000000252D2A2EEE
:101B60002A732025303464202025640A00000000F8
:101B70002DE9FF410546284601F010FC804614A2DD
:101B8000414615A002F054F9404601F027FC1BA085
:101B900002F04EF92E6814E0A6F1100404F11800CA
:101BA00002F09BF9074694F823000C22616A234651
:101BB000CDE90207CDE90021414618A002F038F92D
:101BC0003668AE42E8D1002004B0BDE8F0810000E4
:101BD0006D75746578000000252D2A2E7320202055
:101BE0006F776E65722020686F6C642073757370F8
:101BF000656E64207468726561640A00202D2D2D65
:101C00002D2D2D2D2D202D2D2D2D202D2D2D2D2D1E
:101C10002D2D2D2D2D2D2D2D2D0A0000252D2A2E7B
:101C20002A7320252D382E2A732025303464202550
:101C3000640A00002DE9FC410646304601F0AEFB87
:101C40000746092F00DA09271EA2394620A002F014
:101C5000EFF8384601F0C2FB24A002F0E9F835683D
:101C60002BE0A5F1100404F1180002F01EF9A8B948
:101C700004F1180002F031F98046208C23460C2232
:101C80003946CDE900081FA002F0D2F804F118008F
:101C900003F0F2FD14A002F0CBF80DE004F11800FF
:101CA00002F01BF98046208C23460C223946CDE9F0
:101CB000000818A002F0BCF82D68B542D1D1002070
:101CC000BDE8FC8173656D6170686F72650000002E
:101CD000252D2A2E73207620202073757370656E53
:101CE00064207468726561640A000000202D2D2D47
:101CF000202D2D2D2D2D2D2D2D2D2D2D2D2D2D0A44
:101D000000000000252D2A2E2A7320253033642060
:101D100025643A00252D2A2E2A732025303364208D
:101D200025640A002DE9FC470646304601F036FBE3
:101D300082462BA251462C4802F07AF8504601F018
:101D40004DFB2AA002F074F8D6F8008043E0A8F119
:101D5000100494F8390023460C225146009033A019
:101D600002F066F894F8380000F00F05012D03D159
:101D700031A002F05DF80FE0022D03D131A002F096
:101D800057F809E01DB932A002F052F804E0042D22
:101D900002D132A002F04CF8E76A00E07F1C3878EC
:101DA0002328FBD0D4E90B10791A401A6421484348
:101DB000216BB0FBF1F9616BE06CCDE90001236AA6
:101DC000E06AC01A236BC1181A464B4626A002F0DF
:101DD0002FF8D8F80080B045B9D10020BDE8FC87C5
:101DE000746872656164000064600008202D2D2D08
:101DF00020202D2D2D2D2D2D2D202D2D2D2D2D2D3A
:101E00002D2D2D2D202D2D2D2D2D2D2D2D2D2D201C
:101E1000202D2D2D2D2D2D20202D2D2D2D2D2D2D19
:101E20002D2D2D202D2D2D0A00000000252D2A2ED0
:101E30002A73202533642000207265616479202094
:101E4000000000002073757370656E640000000070
:101E500020696E69742020200000000020636C6FF0
:101E6000736520200000000020307825303878206D
:101E70003078253038782020202025303264252500
:101E800020202030782530387820253033640A002F
:101E90002DE9FC410546284601F080FA074618A2C4
:101EA000394619A001F0C4FF384601F097FA20A086
:101EB00001F0BEFF2E6817E0A6F11004D4E90A0174
:101EC00023460C22CDE90001394622A001F0B0FFE3
:101ED000607B00F0010018B124A001F0A9FF02E02E
:101EE00025A001F0A5FF3668AE42E5D103F0BCF8AD
:101EF0008046414624A001F09BFF0020BDE8FC8104
:101F000074696D6572000000252D2A2E73202070E3
:101F10006572696F64696320202074696D656F75EF
:101F20007420202020202020666C61670A000000B9
:101F3000202D2D2D2D2D2D2D2D2D2D202D2D2D2DEB
:101F40002D2D2D2D2D2D202D2D2D2D2D2D2D2D2DCE
:101F50002D2D0A00252D2A2E2A7320307825303881
:101F6000782030782530387820000000616374696B
:101F700076617465640A0000646561637469766102
:101F80007465640A0000000063757272656E7420E7
:101F90007469636B3A3078253038780A00000000A5
:101FA0002DE9F0438BB005468946174600242DB92C
:101FB00040F221121C491DA001F0D4FB2FB94FF4AF
:101FC000917219491AA001F0CDFB00E0641C285D54
:101FD000202804D0285D092801D04C45F6D324B927
:101FE0004FF0FF300BB0BDE8F0832146284601F0EA
:101FF000EDF8064616B94FF0FF30F3E7282101A8A7
:10200000FEF7C2F901AA4946284601F04FF9804679
:10201000B8F1000F02D14FF0FF30E3E701A94046CD
:10202000B04738600020DDE7A85A0008636D6400FF
:1020300072657470000000002DE9F84F99469246D1
:1020400088460546002706E025280AD051464A461C
:1020500090476D1C7F1C28780028F5D13846BDE8D4
:10206000F88F002315F8011F18462E2915D115F8F1
:10207000011F04232A290DD06FF02F022978A1F126
:102080003004092C09D800EB800002EB4000084422
:102090006D1CF3E758F8040B6D1C2A78002ADDD07C
:1020A000632A07D0732A0FD0104651464A469047FC
:1020B0007F1C2AE018F8042B8DF8002000218DF8F1
:1020C00001106E46012103E058F8046B4FF0FF3118
:1020D0005A074FF0000401D409E0641C84420BDA73
:1020E0008C42FADB325D002AF7D105E0641C8C4299
:1020F000FCDB305D0028F9D1274404E016F8010B21
:1021000051464A469047641EF8D26D1CA3E7000072
:102110002DE9FC5F04468B4616461F46DDE90C9A06
:10212000DDE90E5804F118004060006000BF6662EF
:10213000A762C4F82C90C4F830A02321D4E90B0284
:1021400002F059F8D4E90B3C63441A1F134BD4E94D
:10215000090101F0D1FD2062202D04DB9E221049EF
:1021600010A001F0FFFA3434A57165710020A06061
:10217000C4F81480C4F8188020602071E0642065E1
:10218000343C00902346104A2146019004F150004F
:1021900003F020F80020BDE8FC9F0000654B00081C
:1021A0004C5F00087072696F72697479203C20522C
:1021B000545F5448524541445F5052494F5249542C
:1021C000595F4D4158000000694F00082DE9F04764
:1021D00004460E4617469846DDF8209084F80D9088
:1021E000607B20F001006073266267620020E0627D
:1021F000C4F82880002506E004F1180101EBC500B1
:1022000001F034FE6D1C012DF6DBBDE8F08710B542
:102210000246002001460EE002F1180303EBC10064
:10222000D0E900436360D0E900342360406000607F
:1022300000BF481C01460129EEDB10BD10B500F0BF
:102240003DF910BD7047000070B50546304800EB01
:102250000514284600F004FE00283ED0207902280C
:1022600002DA0220207152E02079042803DA207972
:10227000401C20714BE0A07A38B90120A07205EB18
:102280004501491CC8B200F025F9208900283EDD2F
:10229000E088218988420DDAE088401C80B2E08025
:1022A0002189884233D105EB4501C91CC8B200F031
:1022B00011F92CE0E07A002829DD207B401CC0B217
:1022C0002073E17A884222DB0020207305EB450170
:1022D000491CC8B200F0FEF819E02079022802DD9E
:1022E0000220207110E0207918B12079401E207161
:1022F0000AE0A07A012807D10020A07205EB450171
:10230000891CC8B200F0E6F80020E080207370BDA0
:102310001401002010B5FEF7D9F9FEF747FF01F0D0
:102320006BF800F057F800F003F800F0C1F810BDAA
:1023300070B5002016E0002100EB4002204B03EBBB
:102340008202516000EB400203EB8202916000EBDD
:10235000400203EB8202517000EB400203F82210AE
:10236000411CC8B20428E6DB164909684FF47A73A9
:10237000B1FBF3F2511EB1F1807F00D31BE0511E7F
:102380004FF0E023596159170F23002907DA1C0782
:10239000260E0D4C01F00F052D1F665503E01C079E
:1023A000250E0A4C655400BF00214FF0E0239961CF
:1023B0000721196100BF0121054A117070BD00009D
:1023C000640100201000002018ED00E000E400E0AF
:1023D0001800002010B500F043F800F001F810BD1F
:1023E00010B586B0002400BF002000901A48006895
:1023F00040F00400184908600846006800F0040036
:10240000009000BF00BF00BF002000900846006899
:1024100040F0010008600846006800F001000090EC
:1024200000BF00BF00200290012003900020049014
:1024300000BF0CE0094800EBC40080880190074908
:1024400051F8340001A9FEF729F8601CC4B2022C2F
:10245000F0DB06B010BD000030380240985A00088A
:102460000021114A9172D1721173002018E0642189
:102470000E4A02EB0012118101210C4A02EB0012FC
:1024800011710021094A02EB00129172074A02EB16
:102490000012D172054A02EB00121173411CC8B23E
:1024A0000428E4DB704700005401002014010020E0
:1024B00010B503F093FA00F0F5FB10BD10B5002441
:1024C00004E02046FFF7C0FE601CC4B2042CF8DB19
:1024D00010BD00000649C97A054A50541146C97A10
:1024E000491CC9B2D1720A2901DB0021D17270479F
:1024F00054010020F0B591B004460D4617461E4623
:102500000194029500210391049105970791069685
:10251000089101A8FEF7A2FD18B16C2102A0FFF7F7
:1025200042F911B0F0BD00002E2E5C4253505C55B4
:102530004152545C6273705F756172742E63000067
:10254000416851B14168491E416031B90121417072
:102550000178012901D181684160704770B5054655
:102560000E46284600F028F804460CB9002070BD3D
:102570003146204603F0C3F9F9E72DE9F04105465D
:102580000E461746284600F017F804460CB9BDE879
:10259000F081206A08B1206A80473A4631462046D9
:1025A00003F0D2F900BFF2E713B50446012201A9F6
:1025B0002046FFF7E2FF1CBD10B50446082C15D2DB
:1025C000DFE804F00406080A0C0E10120B4810BDD8
:1025D0000B48FCE70020FAE70020F8E70020F6E7C8
:1025E0000020F4E70020F2E70020F0E740F20911B4
:1025F00004A0FFF7D8F80020E9E7000094010020CC
:10260000C40900202E2E5C4253505C554152545C4C
:102610006273705F756172742E63000038B5044692
:1026200000BF69460020FFF799FF0028F9D09DF808
:10263000000038BD10B51448006890F82500C0F3BC
:10264000400020B9002011490870084610BD10480C
:10265000006838B180220E4801680C48FDF7ABFED7
:102660000A48F3E700F020FE20B10AA10748FDF771
:10267000C2FE03E009A10548FDF7BDFE09A103481C
:10268000FDF78DFE0148E1E734000020F451002001
:10269000380000206D7368200000000066696E73CA
:1026A000682000003E00000010B501F073FA10BD74
:1026B00010B504460948006820B9A322084909A0BA
:1026C00001F050F80548006890F8250064F34100D7
:1026D0000249096881F8250010BD0000340000207F
:1026E000DE5A00087368656C6C20213D2052545FEF
:1026F0004E554C4C00000000024A1060024A116026
:102700007047000024000020280000207CB5002530
:1027100017491848FFF7F0FFD021012001F05CF8BD
:10272000154908600846006820B914A001F080FB34
:10273000681E7CBD0A201D214FF400730022CDE9E4
:102740000010144914A002F0DEF9044600231A46D2
:1027500013A10948006801F06DFF0120FFF7A8FFF1
:102760001CB115B9204602F071FB0020E1E7000022
:102770008465000894640008340000206E6F206DAA
:10278000656D6F727920666F72207368656C6C0A74
:1027900000000000A9270008747368656C6C0000D5
:1027A0007368727800000000FE48006890F8250009
:1027B00020F00100401CFB49096881F82500FFF763
:1027C00039FF054601F034FB4BE2FFF76DFF04468D
:1027D000002C00DA45E21B2C05D10120F1490968E3
:1027E00081F824003DE2EF48006890F824000128B9
:1027F0000DD15B2C05D10220EA49096881F824003B
:102800002FE20020E749096881F82400B9E0E54893
:10281000006890F824000228F8D10020E1490968F6
:1028200081F82400412C34D1DE480068C08C002897
:1028300007DDDC480068C08C401EDA490968C8849E
:1028400004E00020D7490968C8840AE2D548006836
:10285000C08C00EB8002D34800682A3000EB0211E4
:102860005022D04800687A30FDF775FDCD480068E9
:102870007A30FDF7ACFD80B2CA490968A1F8CA00F8
:10288000C8490968A1F8CC00C648006802F072FF88
:10289000E7E1422C40D1C3480068C18CC1480068C0
:1028A000008D401E814207DABE480068C08C401C83
:1028B000BC490968C8840CE0BA480068008D38B18A
:1028C000B8480068008D401EB6490968C88400E019
:1028D000C7E1B4480068C08C00EB8002B1480068D2
:1028E0002A3000EB02115022AE4800687A30FDF722
:1028F00032FDAC4800687A30FDF769FD80B2A94925
:102900000968A1F8CA00A7490968A1F8CC00A54840
:10291000006802F02FFFA4E1442C11D1A148006807
:10292000B0F8CC0058B1A0A001F082FA9D48006830
:10293000B0F8CC00401E9B490968A1F8CC0090E19A
:10294000432C1ED197480068B0F8CC00954909681F
:10295000B1F8CA10884213DA92480068B0F8CC2067
:10296000904800687A30815C90A001F061FA8D484F
:102970000068B0F8CC00401C8A490968A1F8CC0076
:102980006FE10CB1FF2C00D16BE1092C1FD10025A8
:1029900003E085A001F04CFA6D1C82480068B0F895
:1029A000CC00A842F5DC7F4800687A3002F0C6FE11
:1029B0007C4800687A30FDF70AFD80B279490968E1
:1029C000A1F8CA0077490968A1F8CC0049E17F2C39
:1029D00001D0082C6ED173480068B0F8CC0000B963
:1029E0003FE170480068B0F8CA00401E6D490968B0
:1029F000A1F8CA006B480068B0F8CC00401E6949D5
:102A00000968A1F8CC0067480068B0F8CA006549B9
:102A10000968B1F8CC1088423FDD624B1B68B3F8FF
:102A2000CA30604E3668B6F8CC609A1B5D4B1B68A6
:102A3000B3F8CC305B1C5B4E36687A369919594B2B
:102A40001B68B3F8CC60574B1B687A33F01801F061
:102A5000B1FB002153480068B0F8CA205148006813
:102A60007A3081544F480068B0F8CC204D48006857
:102A70007A3011184EA001F0DBF94A480068B0F82E
:102A8000CC5003E048A001F0D3F96D1C4548006824
:102A9000B0F8CA00A842F5DA0BE047A001F0C8F987
:102AA000002140480068B0F8CA203E4800687A30EB
:102AB0008154D6E00D2C01D00A2C2FD13948006862
:102AC00002F070FE00F0F0FB012812D135480068DA
:102AD00090F8250000F0010010B138A001F0A8F92D
:102AE00030480068B0F8CA102E4800687A3000F00C
:102AF00037FBFFF79FFD054601F09AF95021294861
:102B000000687A30FDF740FC002026490968A1F8EA
:102B1000CA0024490968A1F8CC00A2E02148006855
:102B2000B0F8CA00502804DB00201E490968A1F84B
:102B3000CA001C480068B0F8CC001A490968B1F80E
:102B4000CA10884256DA174B1B68B3F8CA30154EC4
:102B50003668B6F8CC609A1B124B1B68B3F8CC6091
:102B6000104B1B687A33F1180E4B1B68B3F8CC304E
:102B70005B1C0C4E36687A36981901F01BFB09482D
:102B80000068B0F8CC20074800687A3084540548C3
:102B9000006890F8250000F00100D0B101480068FD
:102BA0000EE0000034000020080000002563000053
:102BB0000825732020080000082008000A000000F3
:102BC000B0F8CC20274800687A30111826A001F010
:102BD0002FF924480068B0F8CC5004E0AFF2380078
:102BE00001F026F96D1C1F480068B0F8CA00A84221
:102BF000F4DC13E01B480068B0F8CA2019480068EC
:102C00007A3084541748006890F8250000F00100DD
:102C100020B12146AFF26C0001F00AF900241148FE
:102C20000068B0F8CA00401C0E490968A1F8CA0043
:102C30000C480068B0F8CC00401C0A490968A1F8AB
:102C4000CC0008480068B0F8CA00502808DB002013
:102C500004490968A1F8CA0002490968A1F8CC0032
:102C600000BFB2E5340000202573000070B50446B3
:102C70000D46E1B20020FFF797FC204670BDFFF73C
:102C8000CDBC000010B502A001F0D2F8002010BDAC
:102C900048656C6C6F2052542D54687265616421D4
:102CA0000A00000000B587B000BF0020019067480F
:102CB000006840F00100654908600846006800F0BF
:102CC0000100019000BF00BF00BF00200190084636
:102CD000006840F0010008600846006800F001004C
:102CE000019000BF00BF00BF002001905748143082
:102CF000006840F01000554914310860084600682B
:102D000000F01000019000BF00BF481502900220A3
:102D1000039001200490032005900720069002A94B
:102D20004B48FDF7BBFB4FF48060029007200690F4
:102D300002A94748FDF7B2FB012200212520FDF73B
:102D400064FD2520FDF754FD0C2300224FF4E131F2
:102D50004048FFF7CFFB3F48006820F040003D4966
:102D600008600846006820F0200008600846C06837
:102D700040F02000C86000BF002001903348006888
:102D800040F00800314908600846006800F008007B
:102D9000019000BF00BF00BF0020019008460068FE
:102DA00040F0080008600846006800F00800019044
:102DB00000BF00BF00BF0020019024481030006811
:102DC00040F400302149103108600846006800F4E2
:102DD0000030019000BF00BF20200290022003902D
:102DE00001200490032005900720069002A91A48AC
:102DF000FDF754FB402002900720069002A91648D8
:102E0000FDF74CFB012200212620FDF7FEFC2620C9
:102E1000FDF7EEFC0C2300224FF4E1310F48FFF7E1
:102E200069FB0E48006820F040000C490860084625
:102E3000006820F02000086008480C30006840F06E
:102E4000200006490C31086007B000BD3038024050
:102E50000000024000100140000C0240004400400D
:102E60002DE9F041044600250026FF27022C15DA43
:102E700000BF08E0284600F021F810B1701CC6B26F
:102E80002F46681CC5B2022DF4DB012E04D1A742E7
:102E900002D10120BDE8F0810020FBE7022C0BD11C
:102EA000002000F00BF828B1012000F007F808B16D
:102EB0000120EFE70020EDE70020EBE701460B489B
:102EC00050F831000069094B03EBC1039B8818409F
:102ED00008B9002200E00122044800EBC10080791B
:102EE000904201D1012070470020FCE7985A000869
:102EF00008E04FF48061044802F0F9FC4FF47A7066
:102F000001F029FEF5E70000001C024010B50DA0FD
:102F100000F08EFF104804680DE002220FA1206827
:102F2000FDF772FA00B905E00DA0D4E9001200F037
:102F30007FFF00BF0C340E4800688442EDD30020B0
:102F400010BD00002D2D46756E6374696F6E204CA8
:102F50006973743A0A000000240000205F5F0000DB
:102F6000252D313673202D2D2025730A00000000F9
:102F70002800002010B5032001F02CFA0446201D83
:102F8000FEF766FC10BD10B5042001F023FA0446DC
:102F9000201DFEF7D9FC10BD10B50848016808A037
:102FA00000F046FF0B4801680BA000F041FF0F48FE
:102FB00001680FA000F03CFF10BD00005C00002085
:102FC000746F74616C206D656D6F72793A20256441
:102FD0000A0000006000002075736564206D656D57
:102FE0006F7279203A2025640A00000064000020F6
:102FF0006D6178696D756D20616C6C6F636174656E
:1030000064206D656D6F72793A2025640A000000B6
:1030100010B5052001F0DEF90446201DFEF724FD61
:1030200010BD10B5022001F0D5F90446201DFEF7B1
:103030009FFD10BD10B5012001F0CCF90446201D04
:10304000FEF7F8FD10BD10B5002001F0C3F90446ED
:10305000201DFEF767FE10BD10B5092001F0BAF97A
:103060000446201DFEF714FF10BD00001CB51420FF
:1030700003214FF400730022CDE9001009490AA092
:1030800001F041FD094908600846006820B1084682
:10309000006801F0DBFE02E04FF0FF301CBD0020B5
:1030A000FCE70000F12E00086C65640000000020C1
:1030B00010B5044600F0F6FBFFF7D8FF10BD000086
:1030C0002DE9F04781460026002799F8000028B92D
:1030D0000021084600F0A8F8BDE8F0871B48046806
:1030E00027E006221AA12068FDF78EF900B11FE043
:1030F000206800F106084846FDF769F98246524605
:1031000041464846FDF780F988B926B94746384612
:10311000FDF75DF906464146384602F0D8FB054604
:10312000B54200DA2E4641460BA000F081FE00BFFA
:103130000C340A4800688442D3D327B1324639465A
:10314000484601F0CCFB00BFC6E700002400002089
:103150005F5F636D645F000025730A002800002034
:1031600038B504460D4601E0641C6D1E2078202809
:10317000FAD020780928F7D00DB9002038BD6A466A
:1031800029462046FEF70CFF08B90098F6E72046CE
:1031900000E0401C0178202902D001780029F8D1F4
:1031A00000210170214603A000F042FE4FF0FF30E5
:1031B000E4E7000025733A20636F6D6D616E642053
:1031C0006E6F7420666F756E642E0A002DE9F041F3
:1031D00006460D4600271048046815E006220FA198
:1031E0002068FDF711F900B10DE02168881D2A461D
:1031F0003146FDF709F928B9A81D2168085C08B90E
:10320000A76805E000BF0C34064800688442E5D397
:1032100000BF3846BDE8F081240000205F5F636D89
:10322000645F00002800002070B505460E460FA020
:1032300000F0FEFD144804680EE0062213A1206889
:10324000FDF7E2F800B106E0D4E90002811D11A00B
:1032500000F0EEFD00BF0C34114800688442ECD34E
:1032600010A000F0E5FD002070BD000052542D5468
:103270006872656164207368656C6C20636F6D6D46
:10328000616E64733A0A0000240000205F5F636D82
:10329000645F0000252D313673202D2025730A0030
:1032A000280000200A000000012070472DE9F047A7
:1032B00082460E46904654460025002755E003E01E
:1032C00000202070641C6D1C2078202802D02078FB
:1032D000092801D1B542F3D30A2F12D326A000F05A
:1032E000A7FD4FF0000906E058F829102AA000F0C9
:1032F0009FFD09F10109B945F6D326A000F098FD1C
:1033000035E0B54200D332E0207822281CD1641C7D
:103310006D1C48F827407F1C09E020785C2804D108
:103320006078222801D1641C6D1C641C6D1C2078FF
:10333000222801D0B542F0D3B54200D317E00020D7
:103340002070641C6D1C10E048F827407F1C01E0D1
:10335000641C6D1C2078202804D02078092801D016
:10336000B542F5D3B54200D301E0B542A7D300BFC3
:103370003846BDE8F0870000546F6F206D616E79AC
:1033800020617267732021205765206F6E6C792051
:103390005573653A0A000000257320002DE9F041BD
:1033A00006464FF00008002400F0B4FA376809E040
:1033B000A7F11008404601F089FA0546A54200DD54
:1033C0002C463F68B742F3D100F0B4FA0C2C00DC75
:1033D00004B90C242046BDE8F081000010B5044675
:1033E00002E004A000F024FD201EA4F10104F8D1A5
:1033F00010BD00002D00000010B586B0002400BFF5
:10340000002000901A48006840F0800018490860C9
:103410000846006800F08000009000BF00BF012057
:10342000029003900020049000BF0CE0114800EBD4
:10343000C400808801900F4951F8340001A9FDF7BC
:103440002DF8601CC4B2032CF0DB0B48006840F47C
:103450008060094908600846006840F00060086024
:103460000846006840F48050086006B010BD0000B7
:1034700030380240805A0008181C024070B50446DB
:1034800026480068844204D2A222254925A000F0E3
:1034900069F92C480068844204D3A32220492AA059
:1034A00000F060F9608820B1A4221D4931A000F02D
:1034B00059F91A49606809684518AC4215D06888FE
:1034C00098B92048006885420FD02E480068A8426D
:1034D00001D12C4804606868606010480068201AB8
:1034E0000E4A69681268114488600C49A06809682E
:1034F0004618A64211D0708878B922480068A042C8
:1035000001D1204806606068706004480068301A85
:10351000024A616812681144886070BD5000002042
:10352000655E00082872745F75696E74385F742078
:103530002A296D656D203E3D20686561705F70745D
:1035400072000000540000202872745F75696E7468
:10355000385F74202A296D656D203C202872745FC5
:1035600075696E74385F74202A29686561705F65BB
:103570006E6400006D656D2D3E75736564203D3D84
:1035800020300000580000202DE9F04F85B00D4696
:103590009C46DDE90F740E9B04F04008B8F1000F63
:1035A00002D0DFF8688101E0DFF86481CDF80080A7
:1035B00004F01008B8F1000F01D024F0010404F069
:1035C0000108B8F1000F02D04FF0300801E04FF0D1
:1035D0002008C246002604F00208B8F1000F11D0FE
:1035E000002A02DA2D2652420CE004F00408B8F159
:1035F000000F01D02B2605E004F00808B8F1000FF9
:1036000000D02026002142B94FF0300B8846491CDB
:103610000DF1040909F808B01DE01AE0E146B9F11E
:103620000A0F08D14FF00A0BB2FBFBFE0BFB1E2862
:10363000B2FBFBF202E002F00F08120900BFDDF856
:10364000009019F808B08846491C0DF1040909F8E2
:1036500008B0002AE2D1B94200DD0F46DB1B04F0BE
:103660001108B8F1000F10D116B1002B00DD5B1E60
:1036700006E0A84203D84FF0200880F80080401CE4
:10368000B3F10008A3F10103F3DC26B1A84201D88D
:1036900006705B1E401C04F01008B8F1000F0AD140
:1036A00004E0A84201D880F800A0401CB3F1000853
:1036B000A3F10103F5DC06E0A84203D84FF030087F
:1036C00080F80080401CB8467F1E8845F4DC08E086
:1036D000A84205D80DF1040818F8018080F8008090
:1036E000401CB1F10008A1F10101F1DC06E0A842A3
:1036F00003D84FF0200880F80080401CB3F1000888
:10370000A3F10103F3DC05B0BDE8F08F545E0008BF
:10371000435E00081CB514200A214FF48063002288
:10372000CDE90010074908A001F0EDF9044624B9DD
:10373000D122074907A000F015F8204601F086FBCA
:103740001CBD0000B13000086D61696E0000000012
:10375000425B000874696420213D2052545F4E553D
:103760004C4C0000F8B504460D461646002000906B
:103770000A48006858B933462A46214608A000F096
:1037800057FB00BF9DF800000028FBD005E0324643
:1037900029462046014B1B689847F8BD4C00002085
:1037A0002825732920617373657274696F6E2066B2
:1037B00061696C65642061742066756E6374696FFD
:1037C0006E3A25732C206C696E65206E756D62658E
:1037D000723A2564200A00002DE9F04104460D46A6
:1037E00000BFFCF7FFFC074600F0C0FA48B10E49E5
:1037F0000EA000F01DFB40F212220B4915A0FFF7AE
:10380000B1FF3846FCF7F2FC00BF04FB05F000F006
:1038100081FB06462EB104FB05F20021304600F084
:10382000EAFC3046BDE8F081995E000846756E639B
:1038300074696F6E5B25735D207368616C6C206EBC
:103840006F74206E65207573656420696E2049531E
:10385000520A00003000000070B5094C0BE009A0CE
:10386000216800F0E5FA606880470546294609A00E
:1038700000F0DEFA08340A488442F0D370BD00003C
:1038800074640008696E697469616C697A652025E1
:10389000730000003A256420646F6E650A00000022
:1038A0007C64000870B50AA000F0C2FA104C0BE06E
:1038B00010A0216800F0BCFA6068804705462946E0
:1038C00010A000F0B5FA083411488442F0D370BD5E
:1038D000646F20636F6D706F6E656E747320696EB8
:1038E0007469616C697A6174696F6E2E0A000000F8
:1038F0007C640008696E697469616C697A65202569
:10390000730000003A256420646F6E650A000000B1
:103910008C64000810B5FCF765FC04460448008878
:10392000401C00B2024908802046FCF75FFC10BD35
:10393000D800002010B5FCF755FC04460B48008861
:10394000401E00B2094908800846B0F9000000286E
:1039500007DC002008802046FCF748FC00F0A0FDB2
:1039600002E02046FCF742FC10BD0000D800002019
:1039700070B5054600BFFCF735FC064600F0F6F9C9
:1039800048B13C493CA000F053FA40F229223949A1
:1039900043A0FFF7E7FE3046FCF728FC00BF05B95F
:1039A00070BD05F0030028B140F22D2231493DA041
:1039B000FFF7D8FE48480068854203D347480068AF
:1039C000854205D340F22E222A494548FFF7CAFE18
:1039D00041480068854203D340480068854202D3CD
:1039E00000BF00BFDCE7A5F10C0400BF00BF4FF033
:1039F000FF313C4800F062FE608818B12088B0F5C5
:103A0000F55F08D038A000F013FA238862882146B9
:103A10003CA000F00DFA608828B940F24D2215490B
:103A200044A0FFF79FFE2088B0F5F55F05D040F277
:103A30004E22104942A0FFF795FE002060804FF40F
:103A4000F550208045480068844201D24348046014
:103A5000214960680968611A401A41490968081AD1
:103A60003F4908602046FFF709FD1E4800F006FEAA
:103A700000BF95E7A35E000846756E6374696F6EBC
:103A80005B25735D207368616C6C206E6F74206EB3
:103A900065207573656420696E204953520A0000E1
:103AA0003000000028282872745F75696E74333204
:103AB0005F7429726D656D292026202852545F415C
:103AC0004C49474E5F53495A45202D203129292022
:103AD0003D3D203000000000500000205400002038
:103AE000F460000880540020746F206672656520C1
:103AF0006120626164206461746120626C6F636B39
:103B00003A0A00006D656D3A203078253038782CFF
:103B1000207573656420666C61673A2025642C20EB
:103B20006D6167696320636F64653A203078253082
:103B300034780A006D656D2D3E7573656400000074
:103B40006D656D2D3E6D61676963203D3D20484583
:103B500041505F4D4147494300000000580000209C
:103B60006000002000487047F411002000487047B2
:103B7000F451002070B5FEF7CDFBFFF76DFEFFF7A7
:103B8000F5FF0446FFF7EEFF0546214600F0C2FEB2
:103B900070BD000010B54FF0FF340348FFF76FF819
:103BA00044B2E0B210BD00000C0100202DE9F0414C
:103BB0000546002400260D27284600F087FE06460D
:103BC00000BF0BE0285D0A2803D1394605A0FDF7A8
:103BD000EDFD295D03A0FDF7E9FD641CB442F1D3BE
:103BE000BDE8F0812563000070B504461A480068FE
:103BF00038B12046184909688847054605B970BD9F
:103C000000BF16A0E16900F013F918A0A16900F047
:103C10000FF91AA0616900F00BF91CA0216900F0EE
:103C200007F91EA0E16800F003F920A0A16800F0E8
:103C3000FFF822A0616800F0FBF824A0216800F0E2
:103C4000F7F801F0C9F80546294624A000F0F0F87D
:103C5000FFF7F9F900BFFEE7080100207073723A20
:103C6000203078253038780A000000002070633A50
:103C7000203078253038780A00000000206C723A35
:103C8000203078253038780A000000007231323A4E
:103C9000203078253038780A000000007230333A3E
:103CA000203078253038780A000000007230323A2F
:103CB000203078253038780A000000007230313A20
:103CC000203078253038780A000000007230303A11
:103CD000203078253038780A00000000686172646E
:103CE000206661756C74206F6E2074687265616403
:103CF0003A2025730A000000F0B504460D4616462A
:103D0000301D20F0070044380146002203E00D4F2B
:103D100041F82270521C112AF9D34D624FF0000C69
:103D2000C1F828C0C1F82CC0C1F830C0C1F834C0F7
:103D30008B63CC634FF0807CC1F840C000270F60DC
:103D4000F0BD0000EFBEADDE10B500BF00BFFCF758
:103D500049FA044604480078401C0349087020468C
:103D6000FCF744FA10BD0000440000200148007830
:103D7000704700004400002010B500BF00BFFCF7F2
:103D800031FA044604480078401E03490870204672
:103D9000FCF72CFA10BD00004400002070B504466A
:103DA0002068A0F1180500BF00BF284600F0DEFF24
:103DB000002070BD2DE9F04105460C469046204696
:103DC00001F098F8B8F1000F03D0B8F1010F23D13A
:103DD00005E004F11801284600F060F81CE02E68A8
:103DE0000FE0A6F1180794F8390097F839108842C7
:103DF00006DA04F1180107F1180000F04FF802E0AC
:103E00003668AE42EDD100BFAE4204D104F11801D4
:103E1000284600F043F800BF00BF0020BDE8F08155
:103E200010B5044604F1180000F01AF8002010BD87
:103E30000FB438B505A800907F210848009B049A6C
:103E400001F0CAFA04467F2C00D97F240348FFF70B
:103E5000ADFE0020009038BC5DF814FB005400203B
:103E600040600060704740600060704740600060E4
:103E700070470268516002680A60016048607047DC
:103E80000268516002680A60016048607047026819
:103E9000516002680A6001604860704742681160C2
:103EA00042684A604160086070470146086888427D
:103EB00001D1012070470020FCE7014608688842D4
:103EC00001D1012070470020FCE7014608688842C4
:103ED00001D1012070470020FCE7014600200A467E
:103EE00001E01268401C13688B42FAD17047D0E998
:103EF00000215160D0E900121160406000607047FD
:103F0000D0E900215160D0E90012116040600060EA
:103F1000704700002DE9F047054600BFFCF762F945
:103F20008146FFF723FF48B1774978A0FFF780FF6C
:103F30004FF48B7274497FA0FFF714FC4846FCF7DE
:103F400055F900BF15B90020BDE8F087E81C20F046
:103F50000300A84201D000BF01E000BF00BFE81C81
:103F600020F0030574480068854203D900BF00BFF4
:103F70000020E9E70C2D00D20C254FF0FF316F48EF
:103F800000F09CFB6E4800686E490968461AB0E074
:103F90006C4800688419608800287BD106F10C0009
:103FA0006168081AA84275D306F10C006168091A05
:103FB00005F11800814230D306F10C0000EB050832
:103FC0006048006800EB08074FF4F5503880002087
:103FD000788060687860BE60C4F8048001206080EA
:103FE0005548796800680C30814205D05549786899
:103FF00009680844C0F808805348016805F10C00BE
:10400000084451490860514800680968884219D23B
:104010004D4800684D49086014E00120608049491E
:1040200060680968611A401A4749096808444649A6
:104030000860464800680968884203D24248006820
:10404000424908604FF4F55020803D4800688442A2
:1040500024D107E03A48006840683A4909680844B2
:104060003749086036480068408828B134480068FD
:10407000374909688842EDD13148006834490968F8
:1040800088420BD02E480068408838B140F2831235
:104090001D4900E029E02FA0FFF764FB274800F04E
:1040A000EDFA04F10C00284429490968884205D931
:1040B00040F2871214493148FFF754FB04F0030023
:1040C00028B14FF4C47210492D48FFF74BFB04F0A0
:1040D000030028B140F289120B492AA0FFF742FBE6
:1040E00000BF00BF04F10C002EE716480068304402
:1040F000466811480068401BB0423FF649AF0F4880
:1041000000F0BCFA00201FE7845E000846756E636D
:1041100074696F6E5B25735D207368616C6C206ED3
:104120006F74206E65207573656420696E20495335
:10413000520A0000300000005C0000208054002083
:104140005800002050000020600000206400002083
:104150005400002028286C66726565203D3D20686B
:104160006561705F656E6429207C7C2028216C6607
:104170007265652D3E7573656429290050610008DC
:10418000A860000828282872745F75696E7433323D
:104190005F74296D656D292026202852545F414C9B
:1041A00049474E5F53495A45202D20312929203D4A
:1041B0003D20300070B50C46014623468B4210D29C
:1041C0009D188D420DD91144134405E05D1E2B4608
:1041D0002E784D1E29462E70151EA2F10102F5D132
:1041E00008E003E013F8015B01F8015B151EA2F182
:1041F0000102F7D170BDF0B50C460546E6B2042ABF
:1042000015D300F0030797B9014646EA062343EAAF
:10421000034304E008C108C108C108C1103A102ACC
:10422000F8D201E008C1121F042AFBD20D4601E0BA
:1042300005F8016B171EA2F10102F9D1F0BD0000D3
:104240002DE9F04706460F4600BFFBF7CBFF81463E
:10425000FFF78CFD48B11B491BA0FFF7E9FD40F2B9
:104260004512184922A0FFF77DFA4846FBF7BEFF2A
:1042700000BF304600F0AEF805462DB940F25112AD
:1042800010491CA0FFF76EFAE868FFF743FE0446EA
:1042900014B90020BDE8F0872673002060730C225B
:1042A0003946204600F01BFBFBF79CFF804604F1DB
:1042B0001001281DFFF7DDFD4046FBF797FF204664
:1042C000E8E70000CB5E000846756E6374696F6EA8
:1042D0005B25735D207368616C6C206E6F74206E5B
:1042E00065207573656420696E204953520A000089
:1042F00030000000696E666F726D6174696F6E20C8
:10430000213D2052545F4E554C4C000070B5044680
:104310002CB940F287120E490EA0FFF723FA207B3A
:1043200000F0800028B14FF4C47209490EA0FFF7D5
:1043300019FAFBF757FF054604F11000FFF7D7FD08
:104340002846FBF753FF2046FFF712FB70BD000025
:10435000DE5E00086F626A65637420213D2052545E
:104360005F4E554C4C00000021286F626A656374F3
:104370002D3E7479706520262052545F4F626A6525
:1043800063745F436C6173735F5374617469632911
:104390000000000070B504462CB94FF49472074930
:1043A00007A0FFF7DFF9FBF71DFF054604F110003A
:1043B000FFF79DFD2846FBF719FF70BDBA5E0008A8
:1043C0006F626A65637420213D2052545F4E554CE4
:1043D0004C000000024600210AE0074800EB0110F3
:1043E0000078904203D1044800EB01107047491C4B
:1043F0000729F2DB0020F9E7680000202DE9F041F1
:1044000004460D4616462846FFF7E4FF07462FB937
:104410004FF483720C490DA0FFF7A4F945F080001A
:1044200020730C223146204600F059FAFBF7DAFEE1
:10443000804604F11001381DFFF71BFD4046FBF7D5
:10444000D5FEBDE8F0810000AB5E0008696E666FC6
:10445000726D6174696F6E20213D2052545F4E551C
:104460004C4C000010B504462CB94FF4D6720649E6
:1044700006A0FFF777F9207B00F0800008B101204B
:1044800010BD0020FCE70000EF5E00086F626A6567
:10449000637420213D2052545F4E554C4C00000067
:1044A0002DE9F041FBF79EFE07461D48008888BBBA
:1044B0001C480068FDF78AF9461E1B4850F8360074
:1044C000A0F118041948006884421FD018490E70E2
:1044D00016480568046000BF00BF1648007848B958
:1044E00004F1200105F12000FBF783FE3846FBF7BD
:1044F0007DFE0EE000BF00BF04F1200105F12000A9
:10450000FBF777FE3846FBF771FE02E03846FBF713
:104510006DFE03E0FFE73846FBF768FEBDE8F0817B
:10452000D8000020E4000020A4540020DC0000207B
:10453000E00000204400002070B504462CB94FF480
:104540009172144914A0FFF70DF9FBF74BFE0546D5
:1045500014F8380F20F00F0040F00100207062784E
:10456000383C124B03EBC20004F1180142681160A1
:1045700042684A604160086000BF00BF00BF0C494C
:10458000E06B096808430A4908602846FBF72EFEDD
:1045900070BD0000185F00087468726561642021B6
:1045A0003D2052545F4E554C4C000000A454002056
:1045B000E400002070B504462CB94FF4A8721549E8
:1045C00015A0FFF7CFF8FBF70DFE054600BF00BFB3
:1045D00004F11800D0E900215160D0E90012116007
:1045E0004060006000BF94F83910104A02EBC1002F
:1045F0000168814201D1012100E0002129B10C486C
:10460000E16B006888430A4908602846FBF7EEFD25
:1046100070BD0000325F000874687265616420211B
:104620003D2052545F4E554C4C000000A4540020D5
:10463000E40000202DE9F04104460D4616461F46D1
:1046400024B9D822084909A0FFF78CF82A4601218D
:104650002046FFF7D3FE2046FFF7E2FB2684677370
:104660000020BDE8F08100006C5B000873656D20E0
:10467000213D2052545F4E554C4C000070B504460D
:104680000026FBF7AFFD054600BF00BF04F1180090
:10469000FFF713FC28B904F11800FFF77FFB012690
:1046A00002E0208C401C20842846FBF79FFD012E51
:1046B00001D1FFF7F5FE002070BD00002DE9F341A8
:1046C00005462DB940F24D12364937A0FFF74AF89A
:1046D000FBF788FD064600BF00BF288C002806DDDA
:1046E000288C401E28843046FBF780FD57E0019857
:1046F00030B93046FBF77AFD6FF00100BDE8FC8170
:1047000000BFFBF76FFD074600F066FB48B925497F
:1047100029A0FFF78DFB40F26D12224934A0FFF76C
:1047200021F800BFFBF75EFD8046FFF71FFB48B195
:104730001C4930A0FFF77CFB40F26D1219492CA0F8
:10474000FFF710F84046FBF751FD00BF3846FBF776
:104750004DFD00BF00F040FB04460020606300BF39
:1047600000BF6A7B214605F11800FFF723FB019883
:1047700000280BDD00BF00BF01AA002104F150009A
:1047800000F0D4FC04F1500000F04EFD3046FBF781
:104790002DFDFFF785FE606B08B1606BAEE7002072
:1047A000ACE70000A25B000873656D20213D20523C
:1047B000545F4E554C4C000046756E6374696F6EC5
:1047C0005B25735D207368616C6C206E6F74206272
:1047D000652075736564206265666F72652073631A
:1047E000686564756C65722073746172740A000088
:1047F0003000000046756E6374696F6E5B25735DF3
:10480000207368616C6C206E6F74206E6520757308
:10481000656420696E204953520A000008B509A05A
:10482000FFF706FB0AA0FFF703FB12A003230022F9
:104830001946009012A0FFF7FBFA19A0FFF7F8FA4B
:1048400008BD00000A205C207C202F0A0000000028
:104850002D205254202D2020202020546872656184
:1048600064204F7065726174696E67205379737448
:10487000656D0A004D6179203130203230323000D0
:10488000202F207C205C202020202025642E2564E1
:104890002E2564206275696C642025730A0000006F
:1048A0002032303036202D203230313820436F70A6
:1048B0007972696768742062792072742D746872E5
:1048C000656164207465616D0A00000001460A4656
:1048D00000E0521C10780028FBD1501A704770B5C8
:1048E0000346A2B118460C4600BF14F8016B00F84D
:1048F000016B3EB902E0002500F8015B551E2A1E3F
:10490000F9D102E0551E2A1EEFD100BF00BF1846A4
:1049100070BD00002DE9F04705460E46E81C20F06A
:10492000030726F0030800BFFBF75CFC8146FFF796
:104930001DFA40B12A492BA0FFF77AFAD322284961
:1049400032A0FEF70FFF4846FBF750FC00BFB8F15E
:10495000180F09D9A8F11800B84205D3A8EB070031
:1049600018382B49086006E03246294629A0FFF78F
:104970005FFABDE8F0873648076000BF00BF0468F3
:104980004FF4F5502080224800680C306060002011
:10499000A06060802E496068096808442D4908605D
:1049A0004FF4F5500968088001202A4909684880B9
:1049B000174800680C3027490968486014480068A7
:1049C0000C302449096888600023012222A1244870
:1049D000FFF730FE1E4800682249086000BFC8E7A4
:1049E000705E000846756E6374696F6E5B25735D5B
:1049F000207368616C6C206E6F74206E6520757317
:104A0000656420696E204953520A0000300000009E
:104A10005C0000206D656D20696E69742C206572E4
:104A2000726F7220626567696E206164647265737B
:104A30007320307825782C20616E6420656E6420A8
:104A40006164647265737320307825780A00000011
:104A500050000020540000206865617000000000D4
:104A6000805400205800002010B500200C49088018
:104A700000BF00BF002405E00A4901EBC400FFF7B6
:104A8000F2F9641C202CF7DB1F2007490870002076
:104A900006490860064908600648FFF7E4F910BDBA
:104AA000D8000020A4540020E0000020DC000020FA
:104AB000E4000020E800002070B508480068FCF71A
:104AC00085FE451E064850F83500A0F1180405483B
:104AD000046004F12000FBF7D2FB70BDE40000206D
:104AE000A4540020DC00002010B5002405E0044997
:104AF00001EBC400FFF7BAF9641C002CF7D010BD1D
:104B0000F000002070472DE9FF5F06460F469046F3
:104B10001D46DDE90EAB31460020FFF791FB8146D3
:104B2000B9F1000F03D1002004B0BDE8F09F284682
:104B3000FFF7F0F9044624B94846FFF7E7FB0020E9
:104B4000F2E743463A46314648468DE8300CFDF7D9
:104B5000DFFA4846E8E710B50446204600F042F97F
:104B600010BD000070B513480468FBF73BFB054619
:104B70002046FFF71FFD042084F8380004F15000A0
:104B800000F006FB2046FFF76DFC012806D1D4F8A3
:104B9000800018B92046FFF7FDFB04E004F118017E
:104BA0000548FFF76DF92846FBF720FBFFF778FC77
:104BB00070BD0000DC000020E800002007E0044891
:104BC000006810B102480068804700F003F8F6E77B
:104BD0004000002070B54DE000BFFBF703FB064628
:104BE000FFF7C4F840B1264926A0FFF721F9662255
:104BF00023492EA0FEF7B6FD3046FBF7F7FA00BFBB
:104C0000FBF7F0FA0546FCF719FE28B328480068C0
:104C1000A0F1180404F11800D0E900215160D0E996
:104C2000001211604060006000BFFEF773FED4F810
:104C3000800018B12046D4F8801088472046FFF73E
:104C400011FC012805D1FEF775FE2846FBF7CEFAC8
:104C500070BDFEF76FFE03E02846FBF7C7FAF7E7E3
:104C60002846FBF7C3FAE06AFEF782FE2046FFF70C
:104C70004DFB00BFFCF7E2FD0028ADD100BFE7E728
:104C8000565B000846756E6374696F6E5B25735DD5
:104C9000207368616C6C206E6F74206E6520757374
:104CA000656420696E204953520A000030000000FC
:104CB000E80000201FB520201F21C200074BCDE9CE
:104CC0000032CDE902100023054A06A1074800F092
:104CD0000FF8064800F0BAF81FBD0000005300208E
:104CE000BD4B00087469646C6500000078520020B8
:104CF0002DE9FF5F04460D46174698460EAE96E82E
:104D0000400E24B9EE220D490DA0FEF72BFD26B969
:104D1000EF220A490FA0FEF725FD2A460021204672
:104D2000FFF76CFB43463A46294620468DE8400E85
:104D3000FDF7EEF904B0BDE8F09F00005C5F0008ED
:104D400074687265616420213D2052545F4E554C59
:104D50004C000000737461636B5F73746172742044
:104D6000213D2052545F4E554C4C000070B5044616
:104D70002CB940F2A522124912A0FEF7F3FC00BFA5
:104D800000BF94F8380000F00F00022804D000BFE4
:104D900000BF4FF0FF3070BDFBF724FA054604F169
:104DA0001800FFF7ADF804F1500000F0E9FA2846CA
:104DB000FBF71CFA2046FFF7BFFB0020EBE70000E3
:104DC000D35F000874687265616420213D205254ED
:104DD0005F4E554C4C0000000148006870470000D1
:104DE000DC00002031B5FBF7FDF9054610480468EA
:104DF0002CB94FF4FD720F490FA0FEF7B3FC20460B
:104E000000F078F86A46002104F1500000F08EF9B5
:104E100004F1500000F008FA2846FBF7E7F9FFF725
:104E20003FFB606B801C08B900206063002038BD28
:104E3000DC0000209F5F00087468726561642021B7
:104E40003D2052545F4E554C4C00000010B50446B6
:104E50002CB94FF48A72134913A0FEF783FC94F81F
:104E6000380000F00F0028B140F215120D4913A0D0
:104E7000FEF778FC94F83A0084F8390094F8391079
:104E800001208840E06300BF00BF022084F83800A2
:104E90002046FFF76BFFFFF79FFF08B1FFF700FB0E
:104EA000002010BD6B5F000874687265616420218A
:104EB0003D2052545F4E554C4C00000028746872DF
:104EC0006561642D3E7374617420262052545F54D2
:104ED00048524541445F535441545F4D41534B291F
:104EE000203D3D2052545F5448524541445F494E55
:104EF0004954000070B504462CB940F27B22144995
:104F000014A0FEF72FFC00BF00BF94F8380000F09B
:104F10000F00012804D000BF00BF4FF0FF3070BD6C
:104F2000FBF760F9054694F8380020F00F0040F0D8
:104F3000020084F838002046FFF73CFB04F15000E3
:104F400000F01EFA2846FBF751F90020E7E70000C1
:104F5000C15F000874687265616420213D2052546D
:104F60005F4E554C4C00000070B505462C462CB9E0
:104F700040F2D1220E490FA0FEF7F4FB94F838005E
:104F800000F00F00022805D040F2D22208490EA0FE
:104F9000FEF7E8FB6FF00100606304F11800FEF714
:104FA000AFFF2046FFF7C8FAFFF77AFA70BD00009E
:104FB000E45F000874687265616420213D205254EA
:104FC0005F4E554C4C000000287468726561642D7A
:104FD0003E7374617420262052545F5448524541F8
:104FE000445F535441545F4D41534B29203D3D2074
:104FF00052545F5448524541445F53555350454EB7
:105000004400000070B5FBF7EDF80546144804684D
:1050100094F8380000F00F0001281CD1D4E90610E4
:10502000814218D004F11800FEF76AFF94F8392085
:105030000C4B03EBC20004F1180142681160426896
:105040004A604160086000BF2846FBF7CFF8FFF7D1
:1050500027FA002070BD2846FBF7C8F80020F9E7C2
:10506000DC000020A45400200148006870470000C4
:105070003C00002010B50A480068401C0849086040
:10508000FFF7AAFE0446E06C401EE064E06C18B92D
:10509000A06CE064FFF7B6FF00F004F810BD00005C
:1050A0003C00002070B500BF00BFFFF7DDFF0546E4
:1050B000FBF798F806462AE01B480068A0F11804A0
:1050C000E06A281A6FF0004188421FD22046FDF79F
:1050D0009EF8D4E908108847FFF7C6FF054600BFD1
:1050E00000BF607B00F0020058B1607B00F001005F
:1050F00038B1607B20F001006073204600F094F826
:1051000005E0607B20F00100607300E004E00648E9
:10511000FEF7DBFE0028CFD000BF3046FBF766F875
:1051200000BF00BF70BD0000F000002070B5044655
:105130000E4615462CB940F2C9120F490FA0FEF7D2
:1051400011FB4EB1012E04D0022E08D0032E10D137
:105150000AE0A06A28600CE02868A06209E0607B91
:1051600020F00200607304E0607B40F00200607396
:1051700000BF00BF002070BD5060000874696D65FD
:105180007220213D2052545F4E554C4C00000000CF
:1051900070B5044624B9D122084909A0FEF7E2FA05
:1051A000FBF720F805462046FDF731F82846FBF7C7
:1051B0001DF82046FFF7EEF8002070BD13600008D0
:1051C00074696D657220213D2052545F4E554C4CE0
:1051D000000000002DE9F84304460D4616461F4620
:1051E000DDE9088924B9BC2209490AA0FEF7BAFA08
:1051F0002A4609212046FFF701F943463A4631463F
:105200002046CDF80090FCF7E1FFBDE8F8830000F0
:105210000560000874696D657220213D2052545F5D
:105220004E554C4C000000002DE9F84305462DB9C1
:105230004FF49872414942A0FEF794FAFAF7D2FF70
:1052400080462846FCF7E3FF687B20F00100687386
:105250004046FAF7CBFF6FF00041A86A884205D3B9
:105260004FF4A07235493BA0FEF77CFAFFF7FCFE35
:10527000A96A0844E862FAF7B5FF80463E4E0096F8
:1052800000242AE019E05DF824201168182202EBBE
:10529000C402881AC26AEB6AD21A00D108E0C26A54
:1052A000EB6AD21A6FF000439A4200D20CE000BFC2
:1052B0005DF8240000684DF824005DF8240006EB3A
:1052C000C40149688842DED100BF2CB15DF82400DA
:1052D0000830611C4DF82100641C002CD2D02748F6
:1052E0000068401C254908600846076805F1180158
:1052F0000098FEF7CCFD022412E007F0030060B92D
:10530000C4F1010305F1180202EBC301C4F101026B
:105310005DF82200FEF7BBFD00E003E0BF08641C5F
:10532000012CEAD900BF687B40F001006873404659
:10533000FAF75CFF0020BDE8F88300003360000846
:1053400074696D657220213D2052545F4E554C4C5E
:105350000000000074696D65722D3E696E69745FAE
:105360007469636B203C2052545F5449434B5F4D3A
:105370004158202F20320000F0000020F8000020CB
:1053800070B504462CB94FF4D4720D490DA0FEF748
:10539000E9F9607B00F0010010B94FF0FF3070BDFB
:1053A000FAF720FF05462046FCF731FF2846FAF7BA
:1053B0001DFF607B20F0010060730020EFE700001C
:1053C0004260000874696D657220213D2052545F6F
:1053D0004E554C4C000000002DE9FF4F89B080462F
:1053E00044460A984044461E464504D24FF0FF36D4
:1053F000A6EB08000A906FE10B980078252806D0EC
:10540000B44202D80B9800782070641C61E100253A
:1054100026E00B98401C0B900B9800782D2802D1A9
:1054200045F010051CE00B9800782B2802D145F0C0
:10543000040515E00B980078202802D145F00805F6
:105440000EE00B980078232802D145F0200507E0F4
:105450000B980078302802D145F0010500E000E00B
:10546000D7E700BF4FF0FF370B98007830380A2895
:1054700004D20BA800F018FA07460EE00B9800784B
:105480002A280AD10B98401C0B900C9880C80C90CD
:10549000002F02DA7F4245F010054FF0FF390B98DC
:1054A00000782E281CD10B98401C0B900B9800788C
:1054B00030380A2804D20BA800F0F6F981460AE039
:1054C0000B9800782A2806D10B98401C0B900C985A
:1054D00050F8049B0C90B9F1000F01DA4FF000096D
:1054E000002004900B980078682803D00B9800786F
:1054F0006C2805D10B98007804900B98401C0B90F9
:105500000A2005900B9800786F2875D00CDC632872
:1055100013D004DC252870D058286FD18DE0642882
:105520006DD06928F9D18FE070286AD0732825D012
:10553000752878D07828F0D182E005F0100040B9C5
:1055400004E0B44201D820202070641C781E071E9D
:10555000F7DC0C9810F8041B0C90C8B20790B4420A
:1055600001D807982070641C04E0B44201D82020C0
:105570002070641C781E071EF7DCAAE00C980068F7
:1055800006900C98001D0C90069808B95AA0069039
:105590000698FFF79BF98346B9F1000F02DDCB4572
:1055A00000DDCB4605F0100048B904E0B44201D854
:1055B00020202070641C38467F1E5845F6DC0020F1
:1055C00008900BE0B44202D8069800782070641C62
:1055D0000698401C06900898401C0890089858456A
:1055E000F0DB04E0B44201D820202070641C38466F
:1055F0007F1E5845F6DC6CE01CE015E028E022E058
:10560000FFE7781C10B9082745F00105CDE90079BE
:1056100002950C9804C8102331460C902046FDF7E3
:10562000B3FF044655E012E0B44201D825202070B3
:10563000641C4EE0082005901DE045F0400500BFC9
:105640001020059017E000BF45F0020500BF12E0F2
:10565000B44201D825202070641C0B98007830B12A
:10566000B44202D80B9800782070641C02E00B98BA
:10567000401E0B902DE000BF04986C2807D10C98B9
:1056800050F804AB0C9005F00200B8B116E0049895
:1056900068280BD10C9830F8041B1FFA81FA0C9083
:1056A00005F0020050B10FFA8AFA07E00C9850F8A2
:1056B00004AB0C9005F0020000B100BFCDE9007909
:1056C0000295524631462046059BFDF75DFF044694
:1056D00000BF0B98401C0B900B98007800287FF4BB
:1056E0008BAEB44201D8207001E000203070A4EBF2
:1056F00008000DB0BDE8F08F284E554C4C29000035
:10570000002070470020704700207047002070473D
:1057100010B5FAF767FDFEF72DFAFFF77FF8FFF7F0
:10572000E3F9FFF7A1F9FDF7F5FFFFF7EBF9FFF755
:10573000C1FAFFF7C1F9002010BD000070B50446A2
:1057400009A0FEF775FBFDF7AFFD012802D1204649
:10575000FDF7B6FCFCF76EFF05462246294603A07E
:10576000FEF766FB70BD00000A000000257325737C
:105770000000000070B5044606A0FEF759FBFCF7D8
:1057800059FF054604F17A02294604A0FEF750FBB2
:10579000002070BD1B5B324B0D000000257325738C
:1057A0000000000070B50446B4F8CA0000285FD0BD
:1057B000208D012832DB502204F17A0104F12A0005
:1057C000FAF70CFE002853D000250EE06A1C02EB0D
:1057D000820304F12A0202EB031105EB850302EBBD
:1057E00003105022FAF7B7FD6D1C002DEEDB05EB20
:1057F000850204F12A0101EB02105021FAF7C4FDE1
:10580000B4F8CA2005EB850304F12A0101EB03106B
:105810005031FAF7A0FD0120208529E0208D60B1EC
:10582000218D491E01EB810204F12A0101EB0210D6
:1058300050225031FAF7D2FDD0B1208DE084218D75
:1058400001EB810204F12A0101EB02105021FAF769
:105850009BFDB4F8CA20218D01EB810304F12A01DC
:1058600001EB03105031FAF776FD208D401C2085A6
:10587000208DE08470BD000070B5044625680CE002
:10588000A5F11806314606A0FEF7D2FA2868A04214
:1058900002D004A0FEF7CCFA2D68A542F0D170BD6D
:1058A000257300002F0000000146002009E00B686E
:1058B0005A1C0A601A7800EB800302EB4302A2F143
:1058C00030000A681278303A0A2AF0D3704710B5CF
:1058D00003461A4601E0521C491C107828B108788A
:1058E00018B110780C78A042F5D0D01A10BD70B560
:1058F00004460D4629462046FAF7DEFE70BD70B517
:1059000004460D460120FBF796FF668B0020FBF74F
:1059100092FF0EB9002070BD218BA068405C2870FA
:105920000120FBF788FF208B401C80B22083E18997
:10593000884201DB00202083608B401E60830020B2
:10594000FBF779FF0120E6E7F8B504460F46164657
:10595000002539E01EE00120FBF76DFFA08A0090D2
:105960000020FBF768FFA089BDF80010884200DD29
:1059700011E0A089BDF8001088420AD12068C068F3
:1059800000F0800028B92068C06840F080002168DD
:10599000C86000BFDFE700BF785D228A6168885475
:1059A0000120FBF748FF208A401C80B22082A18999
:1059B000884201DB00202082A08A401CA0820020B7
:1059C000FBF739FF681C85B2B542C3DB2068C068AD
:1059D00040F080002168C860F8BD000017481849F1
:1059E000086018484860184888604FF480608881D3
:1059F000C881002008824882C88208834883888240
:105A000008624862886281F82C0088830F48104938
:105A1000086010484860104888604FF480608881B2
:105A2000C881002008824882C8820883488388820F
:105A300008624862886281F82C00704700100140BB
:105A400094010020C4010020C4050020004400404F
:105A5000C4090020F4090020F40D002010B5FEF761
:105A6000DDFE002010BD000000000000000001026B
:105A700003040607080900000000010203040000F7
:105A8000001C024000040000001C0240000800004E
:105A9000001C024000100000000002400100000055
:105AA00000080240002000005F6D73685F65786544
:105AB000635F636D640066696E73685F73797374A6
:105AC000656D5F696E69740066696E73685F6765AE
:105AD000745F70726F6D70745F6D6F64650066697E
